{
  "address": "0x1Bc2C691183cf2b08431324e3C3Cf34407bd328d",
  "abi": [
    {
      "inputs": [
        {
          "internalType": "contract ILayerZeroEndpointV2",
          "name": "_endpoint",
          "type": "address"
        },
        {
          "internalType": "uint32[]",
          "name": "dstEids",
          "type": "uint32[]"
        },
        {
          "internalType": "uint256[]",
          "name": "_messageFees",
          "type": "uint256[]"
        }
      ],
      "stateMutability": "nonpayable",
      "type": "constructor"
    },
    {
      "anonymous": false,
      "inputs": [
        {
          "indexed": true,
          "internalType": "uint32",
          "name": "dstEid",
          "type": "uint32"
        },
        {
          "indexed": false,
          "internalType": "uint256",
          "name": "messageFee",
          "type": "uint256"
        }
      ],
      "name": "MessageFeeSet",
      "type": "event"
    },
    {
      "anonymous": false,
      "inputs": [
        {
          "indexed": true,
          "internalType": "address",
          "name": "previousOwner",
          "type": "address"
        },
        {
          "indexed": true,
          "internalType": "address",
          "name": "newOwner",
          "type": "address"
        }
      ],
      "name": "OwnershipTransferred",
      "type": "event"
    },
    {
      "anonymous": false,
      "inputs": [
        {
          "indexed": true,
          "internalType": "contract ISendLib",
          "name": "lib",
          "type": "address"
        },
        {
          "indexed": false,
          "internalType": "address",
          "name": "to",
          "type": "address"
        },
        {
          "indexed": false,
          "internalType": "uint256",
          "name": "amount",
          "type": "uint256"
        }
      ],
      "name": "Withdraw",
      "type": "event"
    },
    {
      "inputs": [
        {
          "internalType": "uint32",
          "name": "dstEid",
          "type": "uint32"
        },
        {
          "internalType": "address",
          "name": "sender",
          "type": "address"
        },
        {
          "internalType": "uint256",
          "name": "calldataSize",
          "type": "uint256"
        },
        {
          "internalType": "bytes",
          "name": "options",
          "type": "bytes"
        }
      ],
      "name": "assignJob",
      "outputs": [
        {
          "internalType": "uint256",
          "name": "price",
          "type": "uint256"
        }
      ],
      "stateMutability": "view",
      "type": "function"
    },
    {
      "inputs": [],
      "name": "endpoint",
      "outputs": [
        {
          "internalType": "contract ILayerZeroEndpointV2",
          "name": "",
          "type": "address"
        }
      ],
      "stateMutability": "view",
      "type": "function"
    },
    {
      "inputs": [
        {
          "internalType": "uint32",
          "name": "dstEid",
          "type": "uint32"
        },
        {
          "internalType": "address",
          "name": "",
          "type": "address"
        },
        {
          "internalType": "uint256",
          "name": "",
          "type": "uint256"
        },
        {
          "internalType": "bytes",
          "name": "",
          "type": "bytes"
        }
      ],
      "name": "getFee",
      "outputs": [
        {
          "internalType": "uint256",
          "name": "price",
          "type": "uint256"
        }
      ],
      "stateMutability": "view",
      "type": "function"
    },
    {
      "inputs": [
        {
          "internalType": "uint32",
          "name": "",
          "type": "uint32"
        }
      ],
      "name": "messageFees",
      "outputs": [
        {
          "internalType": "uint256",
          "name": "",
          "type": "uint256"
        }
      ],
      "stateMutability": "view",
      "type": "function"
    },
    {
      "inputs": [],
      "name": "owner",
      "outputs": [
        {
          "internalType": "address",
          "name": "",
          "type": "address"
        }
      ],
      "stateMutability": "view",
      "type": "function"
    },
    {
      "inputs": [],
      "name": "renounceOwnership",
      "outputs": [],
      "stateMutability": "nonpayable",
      "type": "function"
    },
    {
      "inputs": [
        {
          "internalType": "uint32",
          "name": "dstEid",
          "type": "uint32"
        },
        {
          "internalType": "uint256",
          "name": "messageFee",
          "type": "uint256"
        }
      ],
      "name": "setMessageFee",
      "outputs": [],
      "stateMutability": "nonpayable",
      "type": "function"
    },
    {
      "inputs": [
        {
          "internalType": "address",
          "name": "newOwner",
          "type": "address"
        }
      ],
      "name": "transferOwnership",
      "outputs": [],
      "stateMutability": "nonpayable",
      "type": "function"
    },
    {
      "inputs": [
        {
          "internalType": "contract ISendLib",
          "name": "lib",
          "type": "address"
        },
        {
          "internalType": "address",
          "name": "to",
          "type": "address"
        },
        {
          "internalType": "uint256",
          "name": "amount",
          "type": "uint256"
        }
      ],
      "name": "withdrawFee",
      "outputs": [],
      "stateMutability": "nonpayable",
      "type": "function"
    }
  ],
  "transactionHash": "0xdcf767cd783ded5c386e9f57be5dfbaa89243971252c0ce40589da8019582e1c",
  "args": [
    "0x6EDCE65403992e310A62460808c4b910D972f10f",
    [],
    []
  ],
  "numDeployments": 1,
  "solcInputHash": "e9fbee87adf5be97585c14c9cbf9e606",
  "bytecode": "0x60a060405234801561001057600080fd5b5060405161091338038061091383398101604081905261002f91610230565b61003833610108565b6001600160a01b038316608052805182511461009a5760405162461bcd60e51b815260206004820152601d60248201527f53696d706c654578656375746f723a20696e76616c696420696e707574000000604482015260640160405180910390fd5b60005b82518110156100ff578181815181106100b8576100b861031e565b6020026020010151600160008584815181106100d6576100d661031e565b60209081029190910181015163ffffffff1682528101919091526040016000205560010161009d565b50505050610334565b600080546001600160a01b038381166001600160a01b0319831681178455604051919092169283917f8be0079c531659141344cd1fd0a4f28419497f9722a3daafe3b4186f6b6457e09190a35050565b634e487b7160e01b600052604160045260246000fd5b604051601f8201601f191681016001600160401b038111828210171561019657610196610158565b604052919050565b60006001600160401b038211156101b7576101b7610158565b5060051b60200190565b600082601f8301126101d257600080fd5b815160206101e76101e28361019e565b61016e565b8083825260208201915060208460051b87010193508684111561020957600080fd5b602086015b84811015610225578051835291830191830161020e565b509695505050505050565b60008060006060848603121561024557600080fd5b83516001600160a01b038116811461025c57600080fd5b602085810151919450906001600160401b038082111561027b57600080fd5b818701915087601f83011261028f57600080fd5b815161029d6101e28261019e565b81815260059190911b8301840190848101908a8311156102bc57600080fd5b938501935b828510156102ed57845163ffffffff811681146102de5760008081fd5b825293850193908501906102c1565b60408a0151909750945050508083111561030657600080fd5b5050610314868287016101c1565b9150509250925092565b634e487b7160e01b600052603260045260246000fd5b6080516105c561034e600039600060c501526105c56000f3fe608060405234801561001057600080fd5b50600436106100935760003560e01c8063715018a611610066578063715018a614610125578063717e8a421461012d5780638da5cb5b14610140578063eb994a2614610151578063f2fde38b1461017157600080fd5b80630b582b86146100985780631095b6d7146100ad5780635e280f11146100c0578063709eb66414610104575b600080fd5b6100ab6100a6366004610433565b610184565b005b6100ab6100bb366004610472565b6101e1565b6100e77f000000000000000000000000000000000000000000000000000000000000000081565b6040516001600160a01b0390911681526020015b60405180910390f35b6101176101123660046104b3565b610296565b6040519081526020016100fb565b6100ab6102c5565b61011761013b3660046104b3565b6102d9565b6000546001600160a01b03166100e7565b61011761015f366004610550565b60016020526000908152604090205481565b6100ab61017f366004610572565b6102f2565b61018c610370565b63ffffffff821660008181526001602052604090819020839055517e8bc5f8c6eca29aff4fa8316d3ba4e756d7c4dac75b5512ddbb3002b0c9fb08906101d59084815260200190565b60405180910390a25050565b6101e9610370565b604051637ecdf29160e11b81526001600160a01b0383811660048301526024820183905284169063fd9be52290604401600060405180830381600087803b15801561023357600080fd5b505af1158015610247573d6000803e3d6000fd5b5050604080516001600160a01b03868116825260208201869052871693507f9b1bfa7fa9ee420a16e124f794c35ac9f90472acc99140eb2f6447c714cad8eb92500160405180910390a2505050565b63ffffffff8516600090815260016020526040812054908190036102bc5750641cbe3182805b95945050505050565b6102cd610370565b6102d760006103ca565b565b60006102e88686868686610296565b9695505050505050565b6102fa610370565b6001600160a01b0381166103645760405162461bcd60e51b815260206004820152602660248201527f4f776e61626c653a206e6577206f776e657220697320746865207a65726f206160448201526564647265737360d01b60648201526084015b60405180910390fd5b61036d816103ca565b50565b6000546001600160a01b031633146102d75760405162461bcd60e51b815260206004820181905260248201527f4f776e61626c653a2063616c6c6572206973206e6f7420746865206f776e6572604482015260640161035b565b600080546001600160a01b038381166001600160a01b0319831681178455604051919092169283917f8be0079c531659141344cd1fd0a4f28419497f9722a3daafe3b4186f6b6457e09190a35050565b803563ffffffff8116811461042e57600080fd5b919050565b6000806040838503121561044657600080fd5b61044f8361041a565b946020939093013593505050565b6001600160a01b038116811461036d57600080fd5b60008060006060848603121561048757600080fd5b83356104928161045d565b925060208401356104a28161045d565b929592945050506040919091013590565b6000806000806000608086880312156104cb57600080fd5b6104d48661041a565b945060208601356104e48161045d565b935060408601359250606086013567ffffffffffffffff8082111561050857600080fd5b818801915088601f83011261051c57600080fd5b81358181111561052b57600080fd5b89602082850101111561053d57600080fd5b9699959850939650602001949392505050565b60006020828403121561056257600080fd5b61056b8261041a565b9392505050565b60006020828403121561058457600080fd5b813561056b8161045d56fea2646970667358221220772c83d750144fc22e4aadaca9353d7aa4db98013b3844531497abf6ddd3413964736f6c63430008160033",
  "devdoc": {
    "kind": "dev",
    "methods": {
      "owner()": {
        "details": "Returns the address of the current owner."
      },
      "renounceOwnership()": {
        "details": "Leaves the contract without owner. It will not be possible to call `onlyOwner` functions. Can only be called by the current owner. NOTE: Renouncing ownership will leave the contract without an owner, thereby disabling any functionality that is only available to the owner."
      },
      "transferOwnership(address)": {
        "details": "Transfers ownership of the contract to a new account (`newOwner`). Can only be called by the current owner."
      }
    },
    "version": 1
  },
  "userdoc": {
    "kind": "user",
    "methods": {},
    "version": 1
  },
  "storageLayout": {
    "storage": [
      {
        "astId": 6299,
        "contract": "contracts/SimpleExecutor.sol:SimpleExecutor",
        "label": "_owner",
        "offset": 0,
        "slot": "0",
        "type": "t_address"
      },
      {
        "astId": 9173,
        "contract": "contracts/SimpleExecutor.sol:SimpleExecutor",
        "label": "messageFees",
        "offset": 0,
        "slot": "1",
        "type": "t_mapping(t_uint32,t_uint256)"
      }
    ],
    "types": {
      "t_address": {
        "encoding": "inplace",
        "label": "address",
        "numberOfBytes": "20"
      },
      "t_mapping(t_uint32,t_uint256)": {
        "encoding": "mapping",
        "key": "t_uint32",
        "label": "mapping(uint32 => uint256)",
        "numberOfBytes": "32",
        "value": "t_uint256"
      },
      "t_uint256": {
        "encoding": "inplace",
        "label": "uint256",
        "numberOfBytes": "32"
      },
      "t_uint32": {
        "encoding": "inplace",
        "label": "uint32",
        "numberOfBytes": "4"
      }
    }
  }
}