{
  "address": "0x1e9642162b777F8665acD488cE5A0bA70C8cadB6",
  "abi": [
    {
      "inputs": [
        {
          "internalType": "address",
          "name": "_endpoint",
          "type": "address"
        },
        {
          "internalType": "address",
          "name": "_executor",
          "type": "address"
        },
        {
          "internalType": "address",
          "name": "_dvn",
          "type": "address"
        },
        {
          "internalType": "address",
          "name": "_delegate",
          "type": "address"
        }
      ],
      "stateMutability": "nonpayable",
      "type": "constructor"
    },
    {
      "inputs": [],
      "name": "InvalidDelegate",
      "type": "error"
    },
    {
      "inputs": [],
      "name": "InvalidEndpointCall",
      "type": "error"
    },
    {
      "inputs": [],
      "name": "LzTokenUnavailable",
      "type": "error"
    },
    {
      "inputs": [
        {
          "internalType": "uint32",
          "name": "eid",
          "type": "uint32"
        }
      ],
      "name": "NoPeer",
      "type": "error"
    },
    {
      "inputs": [
        {
          "internalType": "uint256",
          "name": "msgValue",
          "type": "uint256"
        }
      ],
      "name": "NotEnoughNative",
      "type": "error"
    },
    {
      "inputs": [
        {
          "internalType": "address",
          "name": "addr",
          "type": "address"
        }
      ],
      "name": "OnlyEndpoint",
      "type": "error"
    },
    {
      "inputs": [
        {
          "internalType": "uint32",
          "name": "eid",
          "type": "uint32"
        },
        {
          "internalType": "bytes32",
          "name": "sender",
          "type": "bytes32"
        }
      ],
      "name": "OnlyPeer",
      "type": "error"
    },
    {
      "anonymous": false,
      "inputs": [
        {
          "indexed": true,
          "internalType": "address",
          "name": "previousOwner",
          "type": "address"
        },
        {
          "indexed": true,
          "internalType": "address",
          "name": "newOwner",
          "type": "address"
        }
      ],
      "name": "OwnershipTransferred",
      "type": "event"
    },
    {
      "anonymous": false,
      "inputs": [
        {
          "indexed": false,
          "internalType": "uint32",
          "name": "eid",
          "type": "uint32"
        },
        {
          "indexed": false,
          "internalType": "bytes32",
          "name": "peer",
          "type": "bytes32"
        }
      ],
      "name": "PeerSet",
      "type": "event"
    },
    {
      "inputs": [
        {
          "components": [
            {
              "internalType": "uint32",
              "name": "srcEid",
              "type": "uint32"
            },
            {
              "internalType": "bytes32",
              "name": "sender",
              "type": "bytes32"
            },
            {
              "internalType": "uint64",
              "name": "nonce",
              "type": "uint64"
            }
          ],
          "internalType": "struct Origin",
          "name": "origin",
          "type": "tuple"
        }
      ],
      "name": "allowInitializePath",
      "outputs": [
        {
          "internalType": "bool",
          "name": "",
          "type": "bool"
        }
      ],
      "stateMutability": "view",
      "type": "function"
    },
    {
      "inputs": [],
      "name": "data",
      "outputs": [
        {
          "internalType": "string",
          "name": "",
          "type": "string"
        }
      ],
      "stateMutability": "view",
      "type": "function"
    },
    {
      "inputs": [],
      "name": "dvn",
      "outputs": [
        {
          "internalType": "address",
          "name": "",
          "type": "address"
        }
      ],
      "stateMutability": "view",
      "type": "function"
    },
    {
      "inputs": [],
      "name": "endpoint",
      "outputs": [
        {
          "internalType": "contract ILayerZeroEndpointV2",
          "name": "",
          "type": "address"
        }
      ],
      "stateMutability": "view",
      "type": "function"
    },
    {
      "inputs": [],
      "name": "executor",
      "outputs": [
        {
          "internalType": "address",
          "name": "",
          "type": "address"
        }
      ],
      "stateMutability": "view",
      "type": "function"
    },
    {
      "inputs": [
        {
          "components": [
            {
              "internalType": "uint32",
              "name": "srcEid",
              "type": "uint32"
            },
            {
              "internalType": "bytes32",
              "name": "sender",
              "type": "bytes32"
            },
            {
              "internalType": "uint64",
              "name": "nonce",
              "type": "uint64"
            }
          ],
          "internalType": "struct Origin",
          "name": "",
          "type": "tuple"
        },
        {
          "internalType": "bytes",
          "name": "",
          "type": "bytes"
        },
        {
          "internalType": "address",
          "name": "_sender",
          "type": "address"
        }
      ],
      "name": "isComposeMsgSender",
      "outputs": [
        {
          "internalType": "bool",
          "name": "",
          "type": "bool"
        }
      ],
      "stateMutability": "view",
      "type": "function"
    },
    {
      "inputs": [
        {
          "components": [
            {
              "internalType": "uint32",
              "name": "srcEid",
              "type": "uint32"
            },
            {
              "internalType": "bytes32",
              "name": "sender",
              "type": "bytes32"
            },
            {
              "internalType": "uint64",
              "name": "nonce",
              "type": "uint64"
            }
          ],
          "internalType": "struct Origin",
          "name": "_origin",
          "type": "tuple"
        },
        {
          "internalType": "bytes32",
          "name": "_guid",
          "type": "bytes32"
        },
        {
          "internalType": "bytes",
          "name": "_message",
          "type": "bytes"
        },
        {
          "internalType": "address",
          "name": "_executor",
          "type": "address"
        },
        {
          "internalType": "bytes",
          "name": "_extraData",
          "type": "bytes"
        }
      ],
      "name": "lzReceive",
      "outputs": [],
      "stateMutability": "payable",
      "type": "function"
    },
    {
      "inputs": [
        {
          "internalType": "uint32",
          "name": "",
          "type": "uint32"
        },
        {
          "internalType": "bytes32",
          "name": "",
          "type": "bytes32"
        }
      ],
      "name": "nextNonce",
      "outputs": [
        {
          "internalType": "uint64",
          "name": "nonce",
          "type": "uint64"
        }
      ],
      "stateMutability": "view",
      "type": "function"
    },
    {
      "inputs": [],
      "name": "oAppVersion",
      "outputs": [
        {
          "internalType": "uint64",
          "name": "senderVersion",
          "type": "uint64"
        },
        {
          "internalType": "uint64",
          "name": "receiverVersion",
          "type": "uint64"
        }
      ],
      "stateMutability": "pure",
      "type": "function"
    },
    {
      "inputs": [],
      "name": "owner",
      "outputs": [
        {
          "internalType": "address",
          "name": "",
          "type": "address"
        }
      ],
      "stateMutability": "view",
      "type": "function"
    },
    {
      "inputs": [
        {
          "internalType": "uint32",
          "name": "eid",
          "type": "uint32"
        }
      ],
      "name": "peers",
      "outputs": [
        {
          "internalType": "bytes32",
          "name": "peer",
          "type": "bytes32"
        }
      ],
      "stateMutability": "view",
      "type": "function"
    },
    {
      "inputs": [
        {
          "internalType": "uint32",
          "name": "_dstEid",
          "type": "uint32"
        },
        {
          "internalType": "string",
          "name": "_message",
          "type": "string"
        },
        {
          "internalType": "bytes",
          "name": "_options",
          "type": "bytes"
        },
        {
          "internalType": "bool",
          "name": "_payInLzToken",
          "type": "bool"
        }
      ],
      "name": "quote",
      "outputs": [
        {
          "components": [
            {
              "internalType": "uint256",
              "name": "nativeFee",
              "type": "uint256"
            },
            {
              "internalType": "uint256",
              "name": "lzTokenFee",
              "type": "uint256"
            }
          ],
          "internalType": "struct MessagingFee",
          "name": "fee",
          "type": "tuple"
        }
      ],
      "stateMutability": "view",
      "type": "function"
    },
    {
      "inputs": [],
      "name": "renounceOwnership",
      "outputs": [],
      "stateMutability": "nonpayable",
      "type": "function"
    },
    {
      "inputs": [
        {
          "internalType": "uint32",
          "name": "_dstEid",
          "type": "uint32"
        },
        {
          "internalType": "string",
          "name": "_message",
          "type": "string"
        },
        {
          "internalType": "bytes",
          "name": "_options",
          "type": "bytes"
        }
      ],
      "name": "send",
      "outputs": [
        {
          "components": [
            {
              "internalType": "bytes32",
              "name": "guid",
              "type": "bytes32"
            },
            {
              "internalType": "uint64",
              "name": "nonce",
              "type": "uint64"
            },
            {
              "components": [
                {
                  "internalType": "uint256",
                  "name": "nativeFee",
                  "type": "uint256"
                },
                {
                  "internalType": "uint256",
                  "name": "lzTokenFee",
                  "type": "uint256"
                }
              ],
              "internalType": "struct MessagingFee",
              "name": "fee",
              "type": "tuple"
            }
          ],
          "internalType": "struct MessagingReceipt",
          "name": "receipt",
          "type": "tuple"
        }
      ],
      "stateMutability": "payable",
      "type": "function"
    },
    {
      "inputs": [
        {
          "internalType": "address",
          "name": "_delegate",
          "type": "address"
        }
      ],
      "name": "setDelegate",
      "outputs": [],
      "stateMutability": "nonpayable",
      "type": "function"
    },
    {
      "inputs": [
        {
          "internalType": "uint32",
          "name": "_eid",
          "type": "uint32"
        },
        {
          "internalType": "bytes32",
          "name": "_peer",
          "type": "bytes32"
        }
      ],
      "name": "setPeer",
      "outputs": [],
      "stateMutability": "nonpayable",
      "type": "function"
    },
    {
      "inputs": [
        {
          "internalType": "address",
          "name": "newOwner",
          "type": "address"
        }
      ],
      "name": "transferOwnership",
      "outputs": [],
      "stateMutability": "nonpayable",
      "type": "function"
    }
  ],
  "transactionHash": "0x23a8e662a730db5c71e9c4f464248d56ae121bf87288e92a5ad7371cb52dbc35",
  "args": [
    "0x6EDCE65403992e310A62460808c4b910D972f10f",
    "0xA7BD5222b1881eFC2f0075a0e2600D5267562828",
    "0x9454f0EABc7C4Ea9ebF89190B8bF9051A0468E03",
    "0x8A18e408E585Fb32aFfd73a02f5ff95C2A11df51"
  ],
  "numDeployments": 1,
  "solcInputHash": "e9fbee87adf5be97585c14c9cbf9e606",
  "bytecode": "0x610120604052601560e09081527f4e6f7468696e67207265636569766564207965742e00000000000000000000006101005260029062000040908262000226565b503480156200004e57600080fd5b50604051620020a6380380620020a683398101604081905262000071916200030f565b8381818162000080336200012f565b6001600160a01b038083166080528116620000ae57604051632d618d8160e21b815260040160405180910390fd5b60805160405163ca5eb5e160e01b81526001600160a01b0383811660048301529091169063ca5eb5e190602401600060405180830381600087803b158015620000f657600080fd5b505af11580156200010b573d6000803e3d6000fd5b505050506001600160a01b0396871660c05250505050911660a052506200036c9050565b600080546001600160a01b038381166001600160a01b0319831681178455604051919092169283917f8be0079c531659141344cd1fd0a4f28419497f9722a3daafe3b4186f6b6457e09190a35050565b634e487b7160e01b600052604160045260246000fd5b600181811c90821680620001aa57607f821691505b602082108103620001cb57634e487b7160e01b600052602260045260246000fd5b50919050565b601f82111562000221576000816000526020600020601f850160051c81016020861015620001fc5750805b601f850160051c820191505b818110156200021d5782815560010162000208565b5050505b505050565b81516001600160401b038111156200024257620002426200017f565b6200025a8162000253845462000195565b84620001d1565b602080601f831160018114620002925760008415620002795750858301515b600019600386901b1c1916600185901b1785556200021d565b600085815260208120601f198616915b82811015620002c357888601518255948401946001909101908401620002a2565b5085821015620002e25787850151600019600388901b60f8161c191681555b5050505050600190811b01905550565b80516001600160a01b03811681146200030a57600080fd5b919050565b600080600080608085870312156200032657600080fd5b6200033185620002f2565b93506200034160208601620002f2565b92506200035160408601620002f2565b91506200036160608601620002f2565b905092959194509250565b60805160a05160c051611cb6620003f0600039600081816102e9015261066e01526000818161015101526105d90152600081816101bd015281816103ba015281816104a40152818161054601528181610869015281816108e901528181610a5201528181610d7f01528181610e6d01528181610fb901526110700152611cb66000f3fe6080604052600436106100fe5760003560e01c806382413eac11610095578063ca5eb5e111610064578063ca5eb5e11461030b578063e0539e581461032b578063f2fde38b1461034b578063f77e5dd31461036b578063ff7bd03d1461039857600080fd5b806382413eac1461024e5780638da5cb5b1461027e578063bb0b6a531461029c578063c34c08e5146102d757600080fd5b80635e280f11116100d15780635e280f11146101ab578063715018a6146101df57806373d4a13a146101f45780637d25a05e1461021657600080fd5b806313137d651461010357806317442b701461011857806317b00e7d1461013f5780633400288b1461018b575b600080fd5b610116610111366004611396565b6103b8565b005b34801561012457600080fd5b50604080516001815260026020820152015b60405180910390f35b34801561014b57600080fd5b506101737f000000000000000000000000000000000000000000000000000000000000000081565b6040516001600160a01b039091168152602001610136565b34801561019757600080fd5b506101166101a636600461144e565b610478565b3480156101b757600080fd5b506101737f000000000000000000000000000000000000000000000000000000000000000081565b3480156101eb57600080fd5b5061011661096b565b34801561020057600080fd5b5061020961097f565b60405161013691906114c8565b34801561022257600080fd5b5061023661023136600461144e565b610a0d565b6040516001600160401b039091168152602001610136565b34801561025a57600080fd5b5061026e6102693660046114e2565b610a16565b6040519015158152602001610136565b34801561028a57600080fd5b506000546001600160a01b0316610173565b3480156102a857600080fd5b506102c96102b7366004611548565b60016020526000908152604090205481565b604051908152602001610136565b3480156102e357600080fd5b506101737f000000000000000000000000000000000000000000000000000000000000000081565b34801561031757600080fd5b50610116610326366004611563565b610a2b565b61033e61033936600461162b565b610ab1565b60405161013691906116a1565b34801561035757600080fd5b50610116610366366004611563565b610b3a565b34801561037757600080fd5b5061038b6103863660046116f1565b610bb3565b6040516101369190611780565b3480156103a457600080fd5b5061026e6103b3366004611797565b610bf7565b7f00000000000000000000000000000000000000000000000000000000000000006001600160a01b03163314610408576040516391ac5e4f60e01b81523360048201526024015b60405180910390fd5b602087018035906104229061041d908a611548565b610c2d565b14610460576104346020880188611548565b60405163309afaf360e21b815263ffffffff9091166004820152602088013560248201526044016103ff565b61046f87878787878787610c69565b50505050505050565b610480610c8c565b604051630805f08d60e31b815230600482015263ffffffff831660248201526000907f00000000000000000000000000000000000000000000000000000000000000006001600160a01b03169063402f8468906044016040805180830381865afa1580156104f2573d6000803e3d6000fd5b505050506040513d601f19601f8201168201806040525081019061051691906117b3565b5060405163b96a277f60e01b815230600482015263ffffffff851660248201529091506000906001600160a01b037f0000000000000000000000000000000000000000000000000000000000000000169063b96a277f90604401602060405180830381865afa15801561058d573d6000803e3d6000fd5b505050506040513d601f19601f820116820180604052508101906105b191906117ed565b60408051600180825281830190925291925060009190602080830190803683370190505090507f00000000000000000000000000000000000000000000000000000000000000008160008151811061060b5761060b61180a565b6001600160a01b03929092166020928302919091018201526040805160c081018252600180825281840152600081830181905260608201819052608082018590528251818152938401909252909160a082015260408051808201825261040081527f00000000000000000000000000000000000000000000000000000000000000006001600160a01b03166020820152815160028082526060820190935292935091600091816020015b604080516060808201835260008083526020830152918101919091528152602001906001900390816106b557905050905060405180606001604052808963ffffffff168152602001600263ffffffff1681526020018460405160200161071b9190611865565b604051602081830303815290604052815250816000815181106107405761074061180a565b602002602001018190525060405180606001604052808963ffffffff168152602001600163ffffffff168152602001836040516020016107a19190815163ffffffff1681526020918201516001600160a01b03169181019190915260400190565b604051602081830303815290604052815250816001815181106107c6576107c661180a565b6020908102919091010152604080516001808252818301909252600091816020015b604080516060808201835260008083526020830152918101919091528152602001906001900390816107e85790505090508160008151811061082c5761082c61180a565b6020026020010151816000815181106108475761084761180a565b60209081029190910101526040516306dbd9f960e41b81526001600160a01b037f00000000000000000000000000000000000000000000000000000000000000001690636dbd9f90906108a29030908b9086906004016118d8565b600060405180830381600087803b1580156108bc57600080fd5b505af11580156108d0573d6000803e3d6000fd5b50506040516306dbd9f960e41b81526001600160a01b037f0000000000000000000000000000000000000000000000000000000000000000169250636dbd9f9091506109249030908a9087906004016118d8565b600060405180830381600087803b15801561093e57600080fd5b505af1158015610952573d6000803e3d6000fd5b505050506109608989610ce6565b505050505050505050565b610973610c8c565b61097d6000610cfc565b565b6002805461098c9061197c565b80601f01602080910402602001604051908101604052809291908181526020018280546109b89061197c565b8015610a055780601f106109da57610100808354040283529160200191610a05565b820191906000526020600020905b8154815290600101906020018083116109e857829003601f168201915b505050505081565b60005b92915050565b6001600160a01b03811630145b949350505050565b610a33610c8c565b60405163ca5eb5e160e01b81526001600160a01b0382811660048301527f0000000000000000000000000000000000000000000000000000000000000000169063ca5eb5e190602401600060405180830381600087803b158015610a9657600080fd5b505af1158015610aaa573d6000803e3d6000fd5b5050505050565b610ab96112da565b600084604051602001610acc91906114c8565b60408051601f198184030181526020601f87018190048102840181019092528583529250610b30918891849190889088908190840183828082843760009201829052506040805180820190915234815260208101919091529250339150610d4c9050565b9695505050505050565b610b42610c8c565b6001600160a01b038116610ba75760405162461bcd60e51b815260206004820152602660248201527f4f776e61626c653a206e6577206f776e657220697320746865207a65726f206160448201526564647265737360d01b60648201526084016103ff565b610bb081610cfc565b50565b6040805180820190915260008082526020820152600084604051602001610bda91906114c8565b6040516020818303038152906040529050610b3086828686610e57565b6000602082018035906001908390610c0f9086611548565b63ffffffff1681526020810191909152604001600020541492915050565b63ffffffff811660009081526001602052604081205480610a105760405163f6ff4fb760e01b815263ffffffff841660048201526024016103ff565b610c75848601866119b0565b600290610c829082611a34565b5050505050505050565b6000546001600160a01b0316331461097d5760405162461bcd60e51b815260206004820181905260248201527f4f776e61626c653a2063616c6c6572206973206e6f7420746865206f776e657260448201526064016103ff565b610cee610c8c565b610cf88282610f38565b5050565b600080546001600160a01b038381166001600160a01b0319831681178455604051919092169283917f8be0079c531659141344cd1fd0a4f28419497f9722a3daafe3b4186f6b6457e09190a35050565b610d546112da565b6000610d638460000151610f8d565b602085015190915015610d7d57610d7d8460200151610fb5565b7f00000000000000000000000000000000000000000000000000000000000000006001600160a01b0316632637a450826040518060a001604052808b63ffffffff168152602001610dcd8c610c2d565b81526020018a815260200189815260200160008960200151111515815250866040518463ffffffff1660e01b8152600401610e09929190611af3565b60806040518083038185885af1158015610e27573d6000803e3d6000fd5b50505050506040513d601f19601f82011682018060405250810190610e4c9190611bba565b979650505050505050565b60408051808201909152600080825260208201527f00000000000000000000000000000000000000000000000000000000000000006001600160a01b031663ddc28c586040518060a001604052808863ffffffff168152602001610eba89610c2d565b8152602001878152602001868152602001851515815250306040518363ffffffff1660e01b8152600401610eef929190611af3565b6040805180830381865afa158015610f0b573d6000803e3d6000fd5b505050506040513d601f19601f82011682018060405250810190610f2f9190611c2b565b95945050505050565b63ffffffff8216600081815260016020908152604091829020849055815192835282018390527f238399d427b947898edb290f5ff0f9109849b1c3ba196a42e35f00c50a54b98b910160405180910390a15050565b6000813414610fb1576040516304fb820960e51b81523460048201526024016103ff565b5090565b60007f00000000000000000000000000000000000000000000000000000000000000006001600160a01b031663e4fe1d946040518163ffffffff1660e01b8152600401602060405180830381865afa158015611015573d6000803e3d6000fd5b505050506040513d601f19601f8201168201806040525081019061103991906117ed565b90506001600160a01b038116611062576040516329b99a9560e11b815260040160405180910390fd5b6040805133602482018190527f00000000000000000000000000000000000000000000000000000000000000006001600160a01b03818116604485015260648085018890528551808603909101815260849094019094526020830180516001600160e01b03166323b872dd60e01b179052610cf89385169286906110e79085906110ed565b50505050565b6000611142826040518060400160405280602081526020017f5361666545524332303a206c6f772d6c6576656c2063616c6c206661696c6564815250856001600160a01b03166111c79092919063ffffffff16565b90508051600014806111635750808060200190518101906111639190611c47565b6111c25760405162461bcd60e51b815260206004820152602a60248201527f5361666545524332303a204552433230206f7065726174696f6e20646964206e6044820152691bdd081cdd58d8d9595960b21b60648201526084016103ff565b505050565b6060610a23848460008585600080866001600160a01b031685876040516111ee9190611c64565b60006040518083038185875af1925050503d806000811461122b576040519150601f19603f3d011682016040523d82523d6000602084013e611230565b606091505b5091509150610e4c87838387606083156112ab5782516000036112a4576001600160a01b0385163b6112a45760405162461bcd60e51b815260206004820152601d60248201527f416464726573733a2063616c6c20746f206e6f6e2d636f6e747261637400000060448201526064016103ff565b5081610a23565b610a2383838151156112c05781518083602001fd5b8060405162461bcd60e51b81526004016103ff91906114c8565b60405180606001604052806000801916815260200160006001600160401b0316815260200161131c604051806040016040528060008152602001600081525090565b905290565b60006060828403121561133357600080fd5b50919050565b60008083601f84011261134b57600080fd5b5081356001600160401b0381111561136257600080fd5b60208301915083602082850101111561137a57600080fd5b9250929050565b6001600160a01b0381168114610bb057600080fd5b600080600080600080600060e0888a0312156113b157600080fd5b6113bb8989611321565b96506060880135955060808801356001600160401b03808211156113de57600080fd5b6113ea8b838c01611339565b909750955060a08a013591506113ff82611381565b90935060c0890135908082111561141557600080fd5b506114228a828b01611339565b989b979a50959850939692959293505050565b803563ffffffff8116811461144957600080fd5b919050565b6000806040838503121561146157600080fd5b61146a83611435565b946020939093013593505050565b60005b8381101561149357818101518382015260200161147b565b50506000910152565b600081518084526114b4816020860160208601611478565b601f01601f19169290920160200192915050565b6020815260006114db602083018461149c565b9392505050565b60008060008060a085870312156114f857600080fd5b6115028686611321565b935060608501356001600160401b0381111561151d57600080fd5b61152987828801611339565b909450925050608085013561153d81611381565b939692955090935050565b60006020828403121561155a57600080fd5b6114db82611435565b60006020828403121561157557600080fd5b81356114db81611381565b634e487b7160e01b600052604160045260246000fd5b60006001600160401b03808411156115b0576115b0611580565b604051601f8501601f19908116603f011681019082821181831017156115d8576115d8611580565b816040528093508581528686860111156115f157600080fd5b858560208301376000602087830101525050509392505050565b600082601f83011261161c57600080fd5b6114db83833560208501611596565b6000806000806060858703121561164157600080fd5b61164a85611435565b935060208501356001600160401b038082111561166657600080fd5b6116728883890161160b565b9450604087013591508082111561168857600080fd5b5061169587828801611339565b95989497509550505050565b6000608082019050825182526001600160401b03602084015116602083015260408301516116dc604084018280518252602090810151910152565b5092915050565b8015158114610bb057600080fd5b6000806000806080858703121561170757600080fd5b61171085611435565b935060208501356001600160401b038082111561172c57600080fd5b6117388883890161160b565b9450604087013591508082111561174e57600080fd5b508501601f8101871361176057600080fd5b61176f87823560208401611596565b925050606085013561153d816116e3565b815181526020808301519082015260408101610a10565b6000606082840312156117a957600080fd5b6114db8383611321565b600080604083850312156117c657600080fd5b82516117d181611381565b60208401519092506117e2816116e3565b809150509250929050565b6000602082840312156117ff57600080fd5b81516114db81611381565b634e487b7160e01b600052603260045260246000fd5b60008151808452602080850194506020840160005b8381101561185a5781516001600160a01b031687529582019590820190600101611835565b509495945050505050565b602081526001600160401b03825116602082015260ff602083015116604082015260ff604083015116606082015260ff60608301511660808201526000608083015160c060a08401526118bb60e0840182611820565b905060a0840151601f198483030160c0850152610f2f8282611820565b6001600160a01b03848116825283166020808301919091526060604080840182905284518285018190526000936080600583901b87018101939290870190888301875b8281101561196b57898703607f190184528151805163ffffffff90811689528682015116868901528601518688018990526119588989018261149c565b975050928401929084019060010161191b565b50949b9a5050505050505050505050565b600181811c9082168061199057607f821691505b60208210810361133357634e487b7160e01b600052602260045260246000fd5b6000602082840312156119c257600080fd5b81356001600160401b038111156119d857600080fd5b610a238482850161160b565b601f8211156111c2576000816000526020600020601f850160051c81016020861015611a0d5750805b601f850160051c820191505b81811015611a2c57828155600101611a19565b505050505050565b81516001600160401b03811115611a4d57611a4d611580565b611a6181611a5b845461197c565b846119e4565b602080601f831160018114611a965760008415611a7e5750858301515b600019600386901b1c1916600185901b178555611a2c565b600085815260208120601f198616915b82811015611ac557888601518255948401946001909101908401611aa6565b5085821015611ae35787850151600019600388901b60f8161c191681555b5050505050600190811b01905550565b6040815263ffffffff8351166040820152602083015160608201526000604084015160a06080840152611b2960e084018261149c565b90506060850151603f198483030160a0850152611b46828261149c565b60809690960151151560c08501525050506001600160a01b039190911660209091015290565b600060408284031215611b7e57600080fd5b604051604081018181106001600160401b0382111715611ba057611ba0611580565b604052825181526020928301519281019290925250919050565b600060808284031215611bcc57600080fd5b604051606081016001600160401b038282108183111715611bef57611bef611580565b8160405284518352602085015191508082168214611c0c57600080fd5b506020820152611c1f8460408501611b6c565b60408201529392505050565b600060408284031215611c3d57600080fd5b6114db8383611b6c565b600060208284031215611c5957600080fd5b81516114db816116e3565b60008251611c76818460208701611478565b919091019291505056fea2646970667358221220987a3305aecd9fc9885682c69e22aad2169a59f2fc5848f96510c23b952b639464736f6c63430008160033",
  "devdoc": {
    "kind": "dev",
    "methods": {
      "allowInitializePath((uint32,bytes32,uint64))": {
        "details": "This indicates to the endpoint that the OApp has enabled msgs for this particular path to be received.This defaults to assuming if a peer has been set, its initialized. Can be overridden by the OApp if there is other logic to determine this.",
        "params": {
          "origin": "The origin information containing the source endpoint and sender address."
        },
        "returns": {
          "_0": "Whether the path has been initialized."
        }
      },
      "isComposeMsgSender((uint32,bytes32,uint64),bytes,address)": {
        "details": "_origin The origin information containing the source endpoint and sender address.  - srcEid: The source chain endpoint ID.  - sender: The sender address on the src chain.  - nonce: The nonce of the message._message The lzReceive payload.Applications can optionally choose to implement separate composeMsg senders that are NOT the bridging layer.The default sender IS the OAppReceiver implementer.",
        "params": {
          "_sender": "The sender address."
        },
        "returns": {
          "_0": "isSender Is a valid sender."
        }
      },
      "lzReceive((uint32,bytes32,uint64),bytes32,bytes,address,bytes)": {
        "details": "Entry point for receiving messages or packets from the endpoint.Entry point for receiving msg/packet from the LayerZero endpoint.",
        "params": {
          "_executor": "The address of the executor for the received message.",
          "_extraData": "Additional arbitrary data provided by the corresponding executor.",
          "_guid": "The unique identifier for the received LayerZero message.",
          "_message": "The payload of the received message.",
          "_origin": "The origin information containing the source endpoint and sender address.  - srcEid: The source chain endpoint ID.  - sender: The sender address on the src chain.  - nonce: The nonce of the message."
        }
      },
      "nextNonce(uint32,bytes32)": {
        "details": "_srcEid The source endpoint ID._sender The sender address.The path nonce starts from 1. If 0 is returned it means that there is NO nonce ordered enforcement.Is required by the off-chain executor to determine the OApp expects msg execution is ordered.This is also enforced by the OApp.By default this is NOT enabled. ie. nextNonce is hardcoded to return 0.",
        "returns": {
          "nonce": "The next nonce."
        }
      },
      "oAppVersion()": {
        "returns": {
          "receiverVersion": "The version of the OAppReceiver.sol implementation.",
          "senderVersion": "The version of the OAppSender.sol implementation."
        }
      },
      "owner()": {
        "details": "Returns the address of the current owner."
      },
      "quote(uint32,string,bytes,bool)": {
        "params": {
          "_dstEid": "Destination chain's endpoint ID.",
          "_message": "The message.",
          "_options": "Message execution options (e.g., for sending gas to destination).",
          "_payInLzToken": "Whether to return fee in ZRO token."
        },
        "returns": {
          "fee": "A `MessagingFee` struct containing the calculated gas fee in either the native token or ZRO token."
        }
      },
      "renounceOwnership()": {
        "details": "Leaves the contract without owner. It will not be possible to call `onlyOwner` functions. Can only be called by the current owner. NOTE: Renouncing ownership will leave the contract without an owner, thereby disabling any functionality that is only available to the owner."
      },
      "send(uint32,string,bytes)": {
        "details": "Encodes the message as bytes and sends it using the `_lzSend` internal function.",
        "params": {
          "_dstEid": "The endpoint ID of the destination chain.",
          "_message": "The message string to be sent.",
          "_options": "Additional options for message execution."
        },
        "returns": {
          "receipt": "A `MessagingReceipt` struct containing details of the message sent."
        }
      },
      "setDelegate(address)": {
        "details": "Only the owner/admin of the OApp can call this function.Provides the ability for a delegate to set configs, on behalf of the OApp, directly on the Endpoint contract.",
        "params": {
          "_delegate": "The address of the delegate to be set."
        }
      },
      "setPeer(uint32,bytes32)": {
        "details": "Only the owner/admin of the OApp can call this function.Indicates that the peer is trusted to send LayerZero messages to this OApp.Set this to bytes32(0) to remove the peer address.Peer is a bytes32 to accommodate non-evm chains.",
        "params": {
          "_eid": "The endpoint ID.",
          "_peer": "The address of the peer to be associated with the corresponding endpoint."
        }
      },
      "transferOwnership(address)": {
        "details": "Transfers ownership of the contract to a new account (`newOwner`). Can only be called by the current owner."
      }
    },
    "version": 1
  },
  "userdoc": {
    "kind": "user",
    "methods": {
      "allowInitializePath((uint32,bytes32,uint64))": {
        "notice": "Checks if the path initialization is allowed based on the provided origin."
      },
      "endpoint()": {
        "notice": "Retrieves the LayerZero endpoint associated with the OApp."
      },
      "isComposeMsgSender((uint32,bytes32,uint64),bytes,address)": {
        "notice": "Indicates whether an address is an approved composeMsg sender to the Endpoint."
      },
      "nextNonce(uint32,bytes32)": {
        "notice": "Retrieves the next nonce for a given source endpoint and sender address."
      },
      "oAppVersion()": {
        "notice": "Retrieves the OApp version information."
      },
      "peers(uint32)": {
        "notice": "Retrieves the peer (OApp) associated with a corresponding endpoint."
      },
      "quote(uint32,string,bytes,bool)": {
        "notice": "Quotes the gas needed to pay for the full omnichain transaction in native gas or ZRO token."
      },
      "send(uint32,string,bytes)": {
        "notice": "Sends a message from the source chain to a destination chain."
      },
      "setDelegate(address)": {
        "notice": "Sets the delegate address for the OApp."
      },
      "setPeer(uint32,bytes32)": {
        "notice": "Sets the peer address (OApp instance) for a corresponding endpoint."
      }
    },
    "version": 1
  },
  "storageLayout": {
    "storage": [
      {
        "astId": 6299,
        "contract": "contracts/MyOApp.sol:MyOApp",
        "label": "_owner",
        "offset": 0,
        "slot": "0",
        "type": "t_address"
      },
      {
        "astId": 3758,
        "contract": "contracts/MyOApp.sol:MyOApp",
        "label": "peers",
        "offset": 0,
        "slot": "1",
        "type": "t_mapping(t_uint32,t_bytes32)"
      },
      {
        "astId": 8879,
        "contract": "contracts/MyOApp.sol:MyOApp",
        "label": "data",
        "offset": 0,
        "slot": "2",
        "type": "t_string_storage"
      }
    ],
    "types": {
      "t_address": {
        "encoding": "inplace",
        "label": "address",
        "numberOfBytes": "20"
      },
      "t_bytes32": {
        "encoding": "inplace",
        "label": "bytes32",
        "numberOfBytes": "32"
      },
      "t_mapping(t_uint32,t_bytes32)": {
        "encoding": "mapping",
        "key": "t_uint32",
        "label": "mapping(uint32 => bytes32)",
        "numberOfBytes": "32",
        "value": "t_bytes32"
      },
      "t_string_storage": {
        "encoding": "bytes",
        "label": "string",
        "numberOfBytes": "32"
      },
      "t_uint32": {
        "encoding": "inplace",
        "label": "uint32",
        "numberOfBytes": "4"
      }
    }
  }
}